:020000040000fa
:080000000002040000000000f2
:020000040000fa
:040008009c03000055
:020000040000fa
:04000c009c03000051
:020000040000fa
:040010009c0300004d
:020000040000fa
:040014009c03000049
:020000040000fa
:040018009c03000045
:020000040000fa
:04001c009c03000041
:020000040000fa
:040020009c0300003d
:020000040000fa
:040024009c03000039
:020000040000fa
:040028009c03000035
:020000040000fa
:04002c00fc020000d2
:020000040000fa
:040030009c0300002d
:020000040000fa
:04003400c8020000fe
:020000040000fa
:040038009c03000025
:020000040000fa
:04003c009c03000021
:020000040000fa
:040040009c0300001d
:020000040000fa
:04004400e2020000d4
:020000040000fa
:040048009c03000015
:020000040000fa
:04004c009c03000011
:020000040000fa
:040050009c0300000d
:020000040000fa
:040054009c03000009
:020000040000fa
:040058009c03000005
:020000040000fa
:04005c009c03000001
:020000040000fa
:040060009c030000fd
:020000040000fa
:040064009c030000f9
:020000040000fa
:040068009c030000f5
:020000040000fa
:04006c009c030000f1
:020000040000fa
:040070009c030000ed
:020000040000fa
:040074009c030000e9
:020000040000fa
:040078009c030000e5
:020000040000fa
:04007c009c030000e1
:020000040000fa
:040080009c030000dd
:020000040000fa
:040084009c030000d9
:020000040000fa
:040088009c030000d5
:020000040000fa
:04008c009c030000d1
:020000040000fa
:040090009c030000cd
:020000040000fa
:040094009c030000c9
:020000040000fa
:040098009c030000c5
:020000040000fa
:04009c009c030000c1
:020000040000fa
:0400a0009c030000bd
:020000040000fa
:0400a4009c030000b9
:020000040000fa
:0400a8009c030000b5
:020000040000fa
:0400ac009c030000b1
:020000040000fa
:0400b0009c030000ad
:020000040000fa
:0400b4009c030000a9
:020000040000fa
:0400b8009c030000a5
:020000040000fa
:0400bc009c030000a1
:020000040000fa
:0400c0009c0300009d
:020000040000fa
:0400c4009c03000099
:020000040000fa
:0400c8009c03000095
:020000040000fa
:0400cc009c03000091
:020000040000fa
:0400d0009c0300008d
:020000040000fa
:0400d4009c03000089
:020000040000fa
:0400d8009c03000085
:020000040000fa
:0400dc009c03000081
:020000040000fa
:0400e0009c0300007d
:020000040000fa
:0400e4009c03000079
:020000040000fa
:0400e8009c03000075
:020000040000fa
:0400ec009c03000071
:020000040000fa
:0400f0009c0300006d
:020000040000fa
:0400f4009c03000069
:020000040000fa
:0400f8009c03000065
:020000040000fa
:0400fc009c03000061
:020000040000fa
:040100009c0300005c
:020000040000fa
:040104009c03000058
:020000040000fa
:040108009c03000054
:020000040000fa
:04010c009c03000050
:020000040000fa
:040110009c0300004c
:020000040000fa
:040114009c03000048
:020000040000fa
:040118009c03000044
:020000040000fa
:04011c009c03000040
:020000040000fa
:040120009c0300003c
:020000040000fa
:040124009c03000038
:020000040000fa
:040128009c03000034
:020000040000fa
:04012c009c03000030
:020000040000fa
:040130009c0300002c
:020000040000fa
:040134009c03000028
:020000040000fa
:040138009c03000024
:020000040000fa
:04013c009c03000020
:020000040000fa
:040140009c0300001c
:020000040000fa
:040144009c03000018
:020000040000fa
:040148009c03000014
:020000040000fa
:040208009c03000053
:020000040000fa
:04020c009c0300004f
:020000040000fa
:040210009c0300004b
:020000040000fa
:040214009c03000047
:020000040000fa
:040218009c03000043
:020000040000fa
:04021c009c0300003f
:020000040000fa
:040220009c0300003b
:020000040000fa
:040224009c03000037
:020000040000fa
:040228009c03000033
:020000040000fa
:04022c00fc020000d0
:020000040000fa
:040230009c0300002b
:020000040000fa
:04023400c8020000fc
:020000040000fa
:040238009c03000023
:020000040000fa
:04023c009c0300001f
:020000040000fa
:040240009c0300001b
:020000040000fa
:04024400e2020000d2
:020000040000fa
:040248009c03000013
:020000040000fa
:04024c009c0300000f
:020000040000fa
:040250009c0300000b
:020000040000fa
:040254009c03000007
:020000040000fa
:040258009c03000003
:020000040000fa
:04025c009c030000ff
:020000040000fa
:040260009c030000fb
:020000040000fa
:040264009c030000f7
:020000040000fa
:040268009c030000f3
:020000040000fa
:04026c009c030000ef
:020000040000fa
:040270009c030000eb
:020000040000fa
:040274009c030000e7
:020000040000fa
:040278009c030000e3
:020000040000fa
:04027c009c030000df
:020000040000fa
:040280009c030000db
:020000040000fa
:040284009c030000d7
:020000040000fa
:040288009c030000d3
:020000040000fa
:04028c009c030000cf
:020000040000fa
:040290009c030000cb
:020000040000fa
:040294009c030000c7
:020000040000fa
:040298009c030000c3
:020000040000fa
:04029c009c030000bf
:020000040000fa
:0402a0009c030000bb
:020000040000fa
:0402a4009c030000b7
:020000040000fa
:0402a8009c030000b3
:020000040000fa
:0402ac009c030000af
:020000040000fa
:0402b0009c030000ab
:020000040000fa
:0402b4009c030000a7
:020000040000fa
:0402b8009c030000a3
:020000040000fa
:0402bc009c0300009f
:020000040000fa
:0402c0009c0300009b
:020000040000fa
:0402c4009c03000097
:020000040000fa
:0402c8009c03000093
:020000040000fa
:0402cc009c0300008f
:020000040000fa
:0402d0009c0300008b
:020000040000fa
:0402d4009c03000087
:020000040000fa
:0402d8009c03000083
:020000040000fa
:0402dc009c0300007f
:020000040000fa
:0402e0009c0300007b
:020000040000fa
:0402e4009c03000077
:020000040000fa
:0402e8009c03000073
:020000040000fa
:0402ec009c0300006f
:020000040000fa
:0402f0009c0300006b
:020000040000fa
:0402f4009c03000067
:020000040000fa
:0402f8009c03000063
:020000040000fa
:0402fc009c0300005f
:020000040000fa
:040300009c0300005a
:020000040000fa
:040304009c03000056
:020000040000fa
:040308009c03000052
:020000040000fa
:04030c009c0300004e
:020000040000fa
:040310009c0300004a
:020000040000fa
:040314009c03000046
:020000040000fa
:040318009c03000042
:020000040000fa
:04031c009c0300003e
:020000040000fa
:040320009c0300003a
:020000040000fa
:040324009c03000036
:020000040000fa
:040328009c03000032
:020000040000fa
:04032c009c0300002e
:020000040000fa
:040330009c0300002a
:020000040000fa
:040334009c03000026
:020000040000fa
:040338009c03000022
:020000040000fa
:04033c009c0300001e
:020000040000fa
:040340009c0300001a
:020000040000fa
:040344009c03000016
:020000040000fa
:040348009c03000012
:020000040000fa
:100400008f8120000e7f22000e0188000000000076
:10041000000020000000e000020032000001200087
:100420002002880014000700c50007000000e0005b
:1004300003003a00e04920000100200002003700dc
:100440000000200001002000810f70000100320038
:1004500014000700000020000000e000020032004d
:1004600000000200000000006a040200000000001a
:100470000040da000000fe004440a9000000200017
:100480000000e0000300320000002000a00188000e
:100490004440a800000006008a1f78008b1f7800e7
:1004a0000000060091018800800478000000eb0045
:1004b0001a003700e284440032a0b4009905ba0063
:1004c000e284440032a0b4009906ba00e2844400f9
:1004d00032a0b4000006eb00476fde00fd07b2005b
:1004e000636ce10003003a00ebff07000000eb0043
:1004f0000a003700606ce10004003a00005deb0088
:100500008b05e900fdff3e00040037006168e10053
:10051000010032000086eb000b00070019c7ba008b
:100520001905ba000e04e00003003a000a00e000da
:10053000e0ff3a0000000600fe07b2009e018800be
:100540008a047800f5ff3700395dba008b05e900b1
:100550000c003200295dba008b05e900080032006a
:100560000c00e00003003a00e284440032a0b40032
:10057000f5ff370019ddba008b05e900faff3a00f4
:100580008904e800e184440032a0b40000000600c1
:10059000801f78003400f80000002000a0018800cf
:1005a0000000fa00004080000000e80000408800e1
:1005b0008460a9000080fa003400f9004f00780040
:1005c00000400600801f78003400f8000000200082
:1005d000a00188000000fa00104080000000e80040
:1005e0001040880084e0a9000080fa003400f9007f
:1005f0004f00780000400600809fbe00829fbe0032
:10060000849fbe00869fbe003400f80000002000da
:10061000a00188000000fa008420a900000a8000e0
:100620008000eb00804088009140880010408000ee
:10063000cf80de0042422f000289b900020178001b
:100640006002b900840178000301410043422f0099
:100650000300b80001014100820078000001be00e3
:10066000804080009140800002014000838148006a
:1006700040408000514080000002510081825900ba
:10068000b0408000cf80de00c2bd20000289b900ea
:10069000020178008081eb000383b90086017800b5
:1006a00003014100c3bd20000300b8000101410067
:1006b0008200780004004000858048006040880087
:1006c000714088006240800073408000a08c200050
:1006d00001002000800f5100818f59000f0036006b
:1006e000624080007340800080d023000100200021
:1006f000800f5100818f590002003e001000200041
:100700003040880080408000914080004040880058
:100710005140880010408000b04088000080fa00fe
:100720003400f9004f03be004f02be004f01be006f
:100730004f00be00004006000040da000000fe004e
:0407400000000500b0
:020000040000fa
:100744000000fa00213a8000f08f2f000080600042
:10075400203a8800f0ff2900601988000080eb002f
:1007640040168800c8c2a900c902a800cc22ef0024
:100774000080fa00000006000000fa00113a800030
:10078400f00b20000081600060042000710520004f
:1007940023742000804978008149780082497800d8
:1007a4007134800000fe2f00008060000030a00043
:1007b400703488003136800000fe2f000080600015
:1007c4002001b30030368800103a80000001780020
:1007d4000260a00060042000710520002374200042
:1007e400804978008149780082497800000120001e
:1007f400900888008500a9000a21ef00f0c32900b1
:100804007008880013e1a8008421ef00f0f92000ab
:10081400100c8800f0f92000000c88008461a80006
:10082400210c800080ff2f00008060006000b30076
:10083400200c88000080fa00000006000200fa0084
:10084400000f78001e007800000c88000080fa0079
:10085400000006000000fa00000320008008880061
:1008640030422f00600888000621ef0084e0a900d0
:100874006ac0a80094e0a80011e1a80000032000c9
:100884002008880030422f00100888000021ef0063
:100894008460a9009460a80005e1a8004221ef004b
:1008a40042e1a800110a800080ff2f000080600050
:1008b4000010a000100a880010002000100a880010
:1008c4008420a9009420a8000080fa0000000600fb
:1008d4000000fa009aff0700a7ff0700ddff0700ea
:1008e400010037000000000030408000e10f50009c
:1008f40005003a00f0c92800d0ff07000628ef00e1
:100904000021ef000028ef0000408000e20f5000bb
:10091400f4ff3a00f0f92000c8ff0700f2ff3700a7
:10092400190309000000000000000600793e0900d8
:080934000000000000000600b5
:020000040000fa
:10093c00000800001800000000000000000000008b
:020000040000fa
:020000040001f9
:0457f8000ff90000a5
:020000040000fa
:020000040001f9
:0457fc007f3f0000eb
:00000001FF
