:020000040000fa
:080000000002040000000000f2
:020000040000fa
:04000800c80200002a
:020000040000fa
:04000c00c802000026
:020000040000fa
:04001000c802000022
:020000040000fa
:04001400c80200001e
:020000040000fa
:04001800c80200001a
:020000040000fa
:04001c00c802000016
:020000040000fa
:04002000c802000012
:020000040000fa
:04002400c80200000e
:020000040000fa
:04002800c80200000a
:020000040000fa
:04002c00c802000006
:020000040000fa
:04003000c802000002
:020000040000fa
:04003400c8020000fe
:020000040000fa
:04003800c8020000fa
:020000040000fa
:04003c00c8020000f6
:020000040000fa
:04004000c8020000f2
:020000040000fa
:04004400c8020000ee
:020000040000fa
:04004800c8020000ea
:020000040000fa
:04004c00c8020000e6
:020000040000fa
:04005000c8020000e2
:020000040000fa
:04005400c8020000de
:020000040000fa
:04005800c8020000da
:020000040000fa
:04005c00c8020000d6
:020000040000fa
:04006000c8020000d2
:020000040000fa
:04006400c8020000ce
:020000040000fa
:04006800c8020000ca
:020000040000fa
:04006c00c8020000c6
:020000040000fa
:04007000c8020000c2
:020000040000fa
:04007400c8020000be
:020000040000fa
:04007800c8020000ba
:020000040000fa
:04007c00c8020000b6
:020000040000fa
:04008000c8020000b2
:020000040000fa
:04008400c8020000ae
:020000040000fa
:04008800c8020000aa
:020000040000fa
:04008c00c8020000a6
:020000040000fa
:04009000c8020000a2
:020000040000fa
:04009400c80200009e
:020000040000fa
:04009800c80200009a
:020000040000fa
:04009c00c802000096
:020000040000fa
:0400a000c802000092
:020000040000fa
:0400a400c80200008e
:020000040000fa
:0400a800c80200008a
:020000040000fa
:0400ac00c802000086
:020000040000fa
:0400b000c802000082
:020000040000fa
:0400b400c80200007e
:020000040000fa
:0400b800c80200007a
:020000040000fa
:0400bc00c802000076
:020000040000fa
:0400c000c802000072
:020000040000fa
:0400c400c80200006e
:020000040000fa
:0400c800c80200006a
:020000040000fa
:0400cc00c802000066
:020000040000fa
:0400d000c802000062
:020000040000fa
:0400d400c80200005e
:020000040000fa
:0400d800c80200005a
:020000040000fa
:0400dc00c802000056
:020000040000fa
:0400e000c802000052
:020000040000fa
:0400e400c80200004e
:020000040000fa
:0400e800c80200004a
:020000040000fa
:0400ec00c802000046
:020000040000fa
:0400f000c802000042
:020000040000fa
:0400f400c80200003e
:020000040000fa
:0400f800c80200003a
:020000040000fa
:0400fc00c802000036
:020000040000fa
:04010000c802000031
:020000040000fa
:04010400c80200002d
:020000040000fa
:04010800c802000029
:020000040000fa
:04010c00c802000025
:020000040000fa
:04011000c802000021
:020000040000fa
:04011400c80200001d
:020000040000fa
:04011800c802000019
:020000040000fa
:04011c00c802000015
:020000040000fa
:04012000c802000011
:020000040000fa
:04012400c80200000d
:020000040000fa
:04012800c802000009
:020000040000fa
:04012c00c802000005
:020000040000fa
:04013000c802000001
:020000040000fa
:04013400c8020000fd
:020000040000fa
:04013800c8020000f9
:020000040000fa
:04013c00c8020000f5
:020000040000fa
:04014000c8020000f1
:020000040000fa
:04014400c8020000ed
:020000040000fa
:04014800c8020000e9
:020000040000fa
:04020800c802000028
:020000040000fa
:04020c00c802000024
:020000040000fa
:04021000c802000020
:020000040000fa
:04021400c80200001c
:020000040000fa
:04021800c802000018
:020000040000fa
:04021c00c802000014
:020000040000fa
:04022000c802000010
:020000040000fa
:04022400c80200000c
:020000040000fa
:04022800c802000008
:020000040000fa
:04022c00c802000004
:020000040000fa
:04023000c802000000
:020000040000fa
:04023400c8020000fc
:020000040000fa
:04023800c8020000f8
:020000040000fa
:04023c00c8020000f4
:020000040000fa
:04024000c8020000f0
:020000040000fa
:04024400c8020000ec
:020000040000fa
:04024800c8020000e8
:020000040000fa
:04024c00c8020000e4
:020000040000fa
:04025000c8020000e0
:020000040000fa
:04025400c8020000dc
:020000040000fa
:04025800c8020000d8
:020000040000fa
:04025c00c8020000d4
:020000040000fa
:04026000c8020000d0
:020000040000fa
:04026400c8020000cc
:020000040000fa
:04026800c8020000c8
:020000040000fa
:04026c00c8020000c4
:020000040000fa
:04027000c8020000c0
:020000040000fa
:04027400c8020000bc
:020000040000fa
:04027800c8020000b8
:020000040000fa
:04027c00c8020000b4
:020000040000fa
:04028000c8020000b0
:020000040000fa
:04028400c8020000ac
:020000040000fa
:04028800c8020000a8
:020000040000fa
:04028c00c8020000a4
:020000040000fa
:04029000c8020000a0
:020000040000fa
:04029400c80200009c
:020000040000fa
:04029800c802000098
:020000040000fa
:04029c00c802000094
:020000040000fa
:0402a000c802000090
:020000040000fa
:0402a400c80200008c
:020000040000fa
:0402a800c802000088
:020000040000fa
:0402ac00c802000084
:020000040000fa
:0402b000c802000080
:020000040000fa
:0402b400c80200007c
:020000040000fa
:0402b800c802000078
:020000040000fa
:0402bc00c802000074
:020000040000fa
:0402c000c802000070
:020000040000fa
:0402c400c80200006c
:020000040000fa
:0402c800c802000068
:020000040000fa
:0402cc00c802000064
:020000040000fa
:0402d000c802000060
:020000040000fa
:0402d400c80200005c
:020000040000fa
:0402d800c802000058
:020000040000fa
:0402dc00c802000054
:020000040000fa
:0402e000c802000050
:020000040000fa
:0402e400c80200004c
:020000040000fa
:0402e800c802000048
:020000040000fa
:0402ec00c802000044
:020000040000fa
:0402f000c802000040
:020000040000fa
:0402f400c80200003c
:020000040000fa
:0402f800c802000038
:020000040000fa
:0402fc00c802000034
:020000040000fa
:04030000c80200002f
:020000040000fa
:04030400c80200002b
:020000040000fa
:04030800c802000027
:020000040000fa
:04030c00c802000023
:020000040000fa
:04031000c80200001f
:020000040000fa
:04031400c80200001b
:020000040000fa
:04031800c802000017
:020000040000fa
:04031c00c802000013
:020000040000fa
:04032000c80200000f
:020000040000fa
:04032400c80200000b
:020000040000fa
:04032800c802000007
:020000040000fa
:04032c00c802000003
:020000040000fa
:04033000c8020000ff
:020000040000fa
:04033400c8020000fb
:020000040000fa
:04033800c8020000f7
:020000040000fa
:04033c00c8020000f3
:020000040000fa
:04034000c8020000ef
:020000040000fa
:04034400c8020000eb
:020000040000fa
:04034800c8020000e7
:020000040000fa
:100400000f8020000e7f22000e01880000000000f7
:10041000000020000000e000020032000001200087
:1004200020028800140007005b0007000000e000c5
:1004300003003a0000002000010020000200370005
:100440000000200001002000810f70000100320038
:1004500014000700000020000000e000020032004d
:10046000000002000000000046060200000000003c
:100470000040da000000fe004440a9000001200016
:100480000000e0000300320000002000a00188000e
:100490004440a800000006008a1f78008b1f7800e7
:1004a0000000060091018800800478000000eb0045
:1004b0001a003700e284440032a0b4009905ba0063
:1004c000e284440032a0b4009906ba00e2844400f9
:1004d00032a0b4000006eb00476fde00fd07b2005b
:1004e000636ce10003003a00ebff07000000eb0043
:1004f0000a003700606ce10004003a00005deb0088
:100500008b05e900fdff3e00040037006168e10053
:10051000010032000086eb000b00070019c7ba008b
:100520001905ba000e04e00003003a000a00e000da
:10053000e0ff3a0000000600fe07b2009e018800be
:100540008a047800f5ff3700395dba008b05e900b1
:100550000c003200295dba008b05e900080032006a
:100560000c00e00003003a00e284440032a0b40032
:10057000f5ff370019ddba008b05e900faff3a00f4
:100580008904e800e184440032a0b40000000600c1
:0c0590000040da000000fe000000050042
:020000040000fa
:10059c003132000033410000343500003662000077
:1005ac003738000039430000453000004664000035
:020000040000fa
:1005bc000000fa00a5010700401680003000b300cf
:1005cc00401688000080fa00000006000400fa00c3
:1005dc00004f78001107980000002f00601688006b
:1005ec001e0090000000e0008f003a0000c3b30032
:1005fc009e40780080cf500005003a0061168000c4
:10060c00f080200001007000601688008600370022
:10061c0010c3b3009e40780080cf500005003a0014
:10062c0061168000f0a720000100700060168800a1
:10063c007d00370020c3b3009e40780080cf50006f
:10064c0005003a00611680007089200001007000de
:10065c00601688007400370030c3b3009e407800e9
:10066c0080cf500005003a00611680007083200096
:10067c0001007000601688006b00370040c3b300a7
:10068c009e40780080cf500005003a006116800033
:10069c0070a6200001007000601688006200370010
:1006ac0050c3b3009e40780080cf500005003a0044
:1006bc0061168000709220000100700060168800a6
:1006cc005900370060c3b3009e40780080cf5000c3
:1006dc0005003a0061168000709020000100700047
:1006ec00601688005000370070c3b3009e4078003d
:1006fc0080cf500005003a0061168000f087200082
:10070c0001007000601688004700370080c3b300fa
:10071c009e40780080cf500005003a0061168000a2
:10072c007080200001007000601688003e003700c9
:10073c0090c3b3009e40780080cf500005003a0073
:10074c006116800070822000010070006016880025
:10075c003500370010c4b3009e40780080cf5000a5
:10076c0005003a00611680007084200001007000c2
:10077c00601688002c00370020c6b3009e4078001d
:10078c0080cf500005003a006116800070b0200048
:10079c0001007000601688002300370030c4b300dd
:1007ac009e40780080cf500005003a006116800012
:1007bc00f098200001007000601688001a003700c5
:1007cc0040c6b3009e40780080cf500005003a0030
:1007dc006116800070a12000010070006016880076
:1007ec001100370050c4b3009e40780080cf5000f9
:1007fc0005003a006116800070982000010070001e
:10080c00601688000800370060c4b3009e40780072
:10081c0080cf500004003a0061168000709c2000cc
:10082c0001007000601688001e009000e10f50005f
:10083c008f003a0000c3b3009e40780080cf500078
:10084c0005003a0061168000f040200001007000a5
:10085c00601688008600370010c3b3009e407800f5
:10086c0080cf500005003a0061168000f067200030
:10087c0001007000601688007d00370020c3b300b3
:10088c009e40780080cf500005003a006116800031
:10089c007049200001007000601688007400370059
:1008ac0030c3b3009e40780080cf500005003a0062
:1008bc0061168000704320000100700060168800f3
:1008cc006b00370040c3b3009e40780080cf5000cf
:1008dc0005003a006116800070662000010070006f
:1008ec00601688006200370050c3b3009e40780049
:1008fc0080cf500005003a00611680007052200035
:10090c0001007000601688005900370060c3b30006
:10091c009e40780080cf500005003a0061168000a0
:10092c0070502000010070006016880050003700e5
:10093c0070c3b3009e40780080cf500005003a0091
:10094c0061168000f04720000100700060168800de
:10095c004700370080c3b3009e40780080cf500022
:10096c0005003a0061168000704020000100700004
:10097c00601688003e00370090c3b3009e4078009c
:10098c0080cf500005003a006116800070422000b4
:10099c0001007000601688003500370010c4b300e9
:1009ac009e40780080cf500005003a006116800010
:1009bc007044200001007000601688002c00370085
:1009cc0020c6b3009e40780080cf500005003a004e
:1009dc0061168000707020000100700060168800a5
:1009ec002300370030c4b3009e40780080cf500005
:1009fc0005003a0061168000f058200001007000dc
:100a0c00601688001a00370040c6b3009e4078007c
:100a1c0080cf500005003a00611680007061200004
:100a2c0001007000601688001100370050c4b3003c
:100a3c009e40780080cf500005003a00611680007f
:100a4c007058200001007000601688000800370004
:100a5c0060c4b3009e40780080cf500004003a0080
:100a6c0061168000705c2000010070006016880028
:100a7c000080fa00000006000000fa0011002000bf
:100a8c0070c3b300d1fe0700a80007008000eb0084
:100a9c0010c4b300cdfe0700a40007000080fa00cc
:100aac00000006000000fa00680007000016800035
:100abc00f000b30000168800401680003000b30030
:100acc00401688006840a8006860a8006bc0a800a9
:100adc006ba0a8000080fa00000006000400fa00d9
:100aec0010168000100798001e0090006f00600028
:100afc00100798001e009000e70f500003003a000a
:100b0c000000eb00000f7800140037001e0090006e
:100b1c00eb0f500003003a0010002000000f78008b
:100b2c000e0037001e009000ed0f500003003a003d
:100b3c0020002000000f7800080037001e009000f5
:100b4c00ee0f500003003a0030002000000f780038
:100b5c00020037000080eb00000f78001e007800c8
:100b6c000080fa00000006001e00fa00e6004700b4
:100b7c00e22c28000f000900b258780000002e006b
:100b8c00300f980000002d00400f980000002b0043
:100b9c00500f980000002700600f98000000eb0039
:100bac00000f78001400370061168000f0ff200061
:100bbc0000806000601688001e0078000000400075
:100bcc00f60047000080400010007800800078009c
:100bdc00601680000100700060168800500007004d
:100bec00beff0700100798001e009000e10f4000a8
:100bfc0005003a001e0fe8001e007800e30f5000bd
:100c0c00e9ff340001003700000000001e009000d6
:100c1c00e10f400002003a00e0c6b30009003700c3
:100c2c001e007800c200dd001e0090000080400015
:100c3c0020079800e60047002e009000008040003e
:100c4c00104078000080fa00000006000000fa0056
:100c5c00213a8000f08f2f0000806000203a88003d
:100c6c00f0ff290060198800c022ef00c822ef00b5
:100c7c00cc22ef00c422ef000080fa000000060036
:100c8c000400fa004afe070086ff0700e0c6b30026
:100c9c00004f7800e0c6b300204798009e407800d3
:100cac0031479800b0ff0700004f7800e0c6b30052
:100cbc009e40780080cf500008003200ae4090007b
:100ccc003e40900080cf500004003200ae409000b7
:100cdc00114798009e407800214798001100200091
:100cec001e40900039fe0700100007000f0007009f
:100cfc000e0007000d0007000c0007008000eb0041
:100d0c002e40900031fe0700080007000700070086
:100d1c00060007000500070004000700dfff37008e
:100d2c00190309000000000000000600793e0900cc
:080d3c000000000000000600a9
:020000040000fa
:020000040001f9
:0457f8000ff90000a5
:020000040000fa
:020000040001f9
:0457fc007f3f0000eb
:00000001FF
